{
    "contractName": "ImageProcessor",
    "abi": [
        {
            "anonymous": false,
            "inputs": [
                {
                    "indexed": false,
                    "internalType": "string",
                    "name": "imageData",
                    "type": "string"
                },
                {
                    "indexed": false,
                    "internalType": "address",
                    "name": "uploader",
                    "type": "address"
                }
            ],
            "name": "ImageUploaded",
            "type": "event"
        },
        {
            "inputs": [
                {
                    "internalType": "address",
                    "name": "",
                    "type": "address"
                }
            ],
            "name": "results",
            "outputs": [
                {
                    "internalType": "string",
                    "name": "",
                    "type": "string"
                }
            ],
            "stateMutability": "view",
            "type": "function"
        },
        {
            "inputs": [
                {
                    "internalType": "address",
                    "name": "uploader",
                    "type": "address"
                },
                {
                    "internalType": "string",
                    "name": "result",
                    "type": "string"
                }
            ],
            "name": "submitResult",
            "outputs": [],
            "stateMutability": "nonpayable",
            "type": "function"
        },
        {
            "inputs": [
                {
                    "internalType": "string",
                    "name": "imageData",
                    "type": "string"
                }
            ],
            "name": "uploadImage",
            "outputs": [],
            "stateMutability": "nonpayable",
            "type": "function"
        }
    ],
    "bytecode": "608080604052346100165761042f908161001b8239f35b5f80fdfe6040608081526004361015610012575f80fd5b5f3560e01c80634ba8d4ba1461019a578063e740c8a0146101275763ef378f621461003b575f80fd5b3461012357602080600319360112610123576001600160a01b0361005d6102f5565b165f525f8152815f2091805180935f90805461007881610383565b91828552600191876001821691825f146100fc5750506001146100bc575b5050506100b892916100a991038561030b565b519282849384528301906103bb565b0390f35b8693505f92919252825f20915f925b8284106100e457505050820101816100a96100b8610096565b8054848a0186015288955087949093019281016100cb565b60ff19168782015293151560051b860190930193508492506100a991506100b89050610096565b5f80fd5b5034610123576020366003190112610123576004359067ffffffffffffffff82116101235761017b7f18404c8251d79808adb01c4389340e7af0e5aaac12cd0fef1cccadebc070840192369060040161032d565b9061018f81519282849384528301906103bb565b3360208301520390a1005b50346101235780600319360112610123576101b36102f5565b9067ffffffffffffffff602435818111610123576101d590369060040161032d565b9260018060a01b03165f526020915f83525f209183519182116102e1576101fc8354610383565b601f811161029e575b5080601f831160011461023f57508192935f92610234575b50505f19600383901b1c191660019190911b179055005b015190505f8061021d565b90601f19831694845f52825f20925f905b87821061028657505083600195961061026e575b505050811b019055005b01515f1960f88460031b161c191690555f8080610264565b80600185968294968601518155019501930190610250565b835f52815f20601f840160051c8101918385106102d7575b601f0160051c01905b8181106102cc5750610205565b5f81556001016102bf565b90915081906102b6565b634e487b7160e01b5f52604160045260245ffd5b600435906001600160a01b038216820361012357565b90601f8019910116810190811067ffffffffffffffff8211176102e157604052565b81601f820112156101235780359067ffffffffffffffff82116102e15760405192610362601f8401601f19166020018561030b565b8284526020838301011161012357815f926020809301838601378301015290565b90600182811c921680156103b1575b602083101461039d57565b634e487b7160e01b5f52602260045260245ffd5b91607f1691610392565b91908251928382525f5b8481106103e5575050825f602080949584010152601f8019910116010190565b6020818301810151848301820152016103c556fea2646970667358221220f4310012740ac3813f1f34dd033606d78133bcbf1121bf15140b40f173b3566164736f6c63430008180033",
    "sourcePath": "/Users/kunall/scratchpad/dcentral-labs/coprocessor/image-processor/src/ImageProcessor.sol",
    "compiler": {
        "name": "solc",
        "version": "0.8.24+commit.e11b9ed9"
    },
    "functionHashes": {
        "results(address)": "ef378f62",
        "submitResult(address,string)": "4ba8d4ba",
        "uploadImage(string)": "e740c8a0"
    },
    "gasEstimates": {
        "creation": {
            "codeDepositCost": "214200",
            "executionCost": "263",
            "totalCost": "214463"
        },
        "external": {
            "results(address)": "infinite",
            "submitResult(address,string)": "infinite",
            "uploadImage(string)": "infinite"
        }
    }
}